{
  "_format": "hh-sol-artifact-1",
  "contractName": "ReverseAuction",
  "sourceName": "contracts/ReverseAuction.sol",
  "abi": [
    {
      "inputs": [
        {
          "internalType": "uint256",
          "name": "_N",
          "type": "uint256"
        },
        {
          "internalType": "uint256",
          "name": "_M",
          "type": "uint256"
        },
        {
          "internalType": "uint256",
          "name": "_duration",
          "type": "uint256"
        }
      ],
      "stateMutability": "payable",
      "type": "constructor"
    },
    {
      "inputs": [],
      "name": "M",
      "outputs": [
        {
          "internalType": "uint256",
          "name": "",
          "type": "uint256"
        }
      ],
      "stateMutability": "view",
      "type": "function"
    },
    {
      "inputs": [],
      "name": "N",
      "outputs": [
        {
          "internalType": "uint256",
          "name": "",
          "type": "uint256"
        }
      ],
      "stateMutability": "view",
      "type": "function"
    },
    {
      "inputs": [
        {
          "internalType": "uint256",
          "name": "",
          "type": "uint256"
        }
      ],
      "name": "bids",
      "outputs": [
        {
          "internalType": "address",
          "name": "bidder",
          "type": "address"
        },
        {
          "internalType": "uint256",
          "name": "amount",
          "type": "uint256"
        }
      ],
      "stateMutability": "view",
      "type": "function"
    },
    {
      "inputs": [],
      "name": "creator",
      "outputs": [
        {
          "internalType": "address",
          "name": "",
          "type": "address"
        }
      ],
      "stateMutability": "view",
      "type": "function"
    },
    {
      "inputs": [],
      "name": "deadline",
      "outputs": [
        {
          "internalType": "uint256",
          "name": "",
          "type": "uint256"
        }
      ],
      "stateMutability": "view",
      "type": "function"
    },
    {
      "inputs": [],
      "name": "finalize",
      "outputs": [],
      "stateMutability": "nonpayable",
      "type": "function"
    },
    {
      "inputs": [],
      "name": "finalized",
      "outputs": [
        {
          "internalType": "bool",
          "name": "",
          "type": "bool"
        }
      ],
      "stateMutability": "view",
      "type": "function"
    },
    {
      "inputs": [],
      "name": "submitBid",
      "outputs": [],
      "stateMutability": "payable",
      "type": "function"
    }
  ],
  "bytecode": "0x6101006040526000600160006101000a81548160ff0219169083151502179055506040516200128c3803806200128c833981810160405281019062000045919062000154565b600083118015620000565750600082115b6200006057600080fd5b81836200006e9190620001df565b3414620000b2576040517f08c379a0000000000000000000000000000000000000000000000000000000008152600401620000a9906200028b565b60405180910390fd5b3373ffffffffffffffffffffffffffffffffffffffff1660808173ffffffffffffffffffffffffffffffffffffffff16815250508260a081815250508160c081815250508042620001049190620002ad565b60e08181525050505050620002e8565b600080fd5b6000819050919050565b6200012e8162000119565b81146200013a57600080fd5b50565b6000815190506200014e8162000123565b92915050565b60008060006060848603121562000170576200016f62000114565b5b600062000180868287016200013d565b935050602062000193868287016200013d565b9250506040620001a6868287016200013d565b9150509250925092565b7f4e487b7100000000000000000000000000000000000000000000000000000000600052601160045260246000fd5b6000620001ec8262000119565b9150620001f98362000119565b9250828202620002098162000119565b91508282048414831517620002235762000222620001b0565b5b5092915050565b600082825260208201905092915050565b7f4d7573742073656e642065786163746c79204e2a4d2045544800000000000000600082015250565b6000620002736019836200022a565b915062000280826200023b565b602082019050919050565b60006020820190508181036000830152620002a68162000264565b9050919050565b6000620002ba8262000119565b9150620002c78362000119565b9250828201905080821115620002e257620002e1620001b0565b5b92915050565b60805160a05160c05160e051610f326200035a600039600081816101dc015281816102e2015261089201526000818161085b01526108f40152600081816106b4015281816106e00152610a520152600081816101b801528181610254015281816103bb01526107ef0152610f326000f3fe60806040526004361061007b5760003560e01c8063693f917e1161004e578063693f917e1461012b578063b3f05b9714610156578063c334b6b214610181578063c9e525df1461018b5761007b565b806302d05d3f1461008057806329dcb0cf146100ab5780634423c5f1146100d65780634bb278f314610114575b600080fd5b34801561008c57600080fd5b506100956101b6565b6040516100a29190610ab5565b60405180910390f35b3480156100b757600080fd5b506100c06101da565b6040516100cd9190610ae9565b60405180910390f35b3480156100e257600080fd5b506100fd60048036038101906100f89190610b35565b6101fe565b60405161010b929190610b62565b60405180910390f35b34801561012057600080fd5b50610129610252565b005b34801561013757600080fd5b50610140610859565b60405161014d9190610ae9565b60405180910390f35b34801561016257600080fd5b5061016b61087d565b6040516101789190610ba6565b60405180910390f35b610189610890565b005b34801561019757600080fd5b506101a0610a50565b6040516101ad9190610ae9565b60405180910390f35b7f000000000000000000000000000000000000000000000000000000000000000081565b7f000000000000000000000000000000000000000000000000000000000000000081565b6000818154811061020e57600080fd5b90600052602060002090600202016000915090508060000160009054906101000a900473ffffffffffffffffffffffffffffffffffffffff16908060010154905082565b7f000000000000000000000000000000000000000000000000000000000000000073ffffffffffffffffffffffffffffffffffffffff163373ffffffffffffffffffffffffffffffffffffffff16146102e0576040517f08c379a00000000000000000000000000000000000000000000000000000000081526004016102d790610c1e565b60405180910390fd5b7f0000000000000000000000000000000000000000000000000000000000000000421015610343576040517f08c379a000000000000000000000000000000000000000000000000000000000815260040161033a90610c8a565b60405180910390fd5b600160009054906101000a900460ff1615610393576040517f08c379a000000000000000000000000000000000000000000000000000000000815260040161038a90610cf6565b60405180910390fd5b60018060006101000a81548160ff0219169083151502179055506000808054905003610425577f000000000000000000000000000000000000000000000000000000000000000073ffffffffffffffffffffffffffffffffffffffff166108fc479081150290604051600060405180830381858888f1935050505015801561041f573d6000803e3d6000fd5b50610857565b60005b6000805490508110156106af5760005b600160008054905061044a9190610d45565b81101561069b5760006001826104609190610d79565b8154811061047157610470610dad565b5b9060005260206000209060020201600101546000828154811061049757610496610dad565b5b90600052602060002090600202016001015411156106885760008082815481106104c4576104c3610dad565b5b90600052602060002090600202016040518060400160405290816000820160009054906101000a900473ffffffffffffffffffffffffffffffffffffffff1673ffffffffffffffffffffffffffffffffffffffff1673ffffffffffffffffffffffffffffffffffffffff1681526020016001820154815250509050600060018361054e9190610d79565b8154811061055f5761055e610dad565b5b90600052602060002090600202016000838154811061058157610580610dad565b5b90600052602060002090600202016000820160009054906101000a900473ffffffffffffffffffffffffffffffffffffffff168160000160006101000a81548173ffffffffffffffffffffffffffffffffffffffff021916908373ffffffffffffffffffffffffffffffffffffffff160217905550600182015481600101559050508060006001846106139190610d79565b8154811061062457610623610dad565b5b906000526020600020906002020160008201518160000160006101000a81548173ffffffffffffffffffffffffffffffffffffffff021916908373ffffffffffffffffffffffffffffffffffffffff16021790555060208201518160010155905050505b808061069390610ddc565b915050610438565b5080806106a790610ddc565b915050610428565b5060007f000000000000000000000000000000000000000000000000000000000000000060008054905010610704577f000000000000000000000000000000000000000000000000000000000000000061070b565b6000805490505b905060008060018361071d9190610d45565b8154811061072e5761072d610dad565b5b906000526020600020906002020160010154905060005b828110156107ec576000818154811061076157610760610dad565b5b906000526020600020906002020160000160009054906101000a900473ffffffffffffffffffffffffffffffffffffffff1673ffffffffffffffffffffffffffffffffffffffff166108fc839081150290604051600060405180830381858888f193505050501580156107d8573d6000803e3d6000fd5b5080806107e490610ddc565b915050610745565b507f000000000000000000000000000000000000000000000000000000000000000073ffffffffffffffffffffffffffffffffffffffff166108fc479081150290604051600060405180830381858888f19350505050158015610853573d6000803e3d6000fd5b5050505b565b7f000000000000000000000000000000000000000000000000000000000000000081565b600160009054906101000a900460ff1681565b7f000000000000000000000000000000000000000000000000000000000000000042106108f2576040517f08c379a00000000000000000000000000000000000000000000000000000000081526004016108e990610e70565b60405180910390fd5b7f0000000000000000000000000000000000000000000000000000000000000000341115610955576040517f08c379a000000000000000000000000000000000000000000000000000000000815260040161094c90610edc565b60405180910390fd5b600160009054906101000a900460ff16156109a5576040517f08c379a000000000000000000000000000000000000000000000000000000000815260040161099c90610cf6565b60405180910390fd5b600060405180604001604052803373ffffffffffffffffffffffffffffffffffffffff16815260200134815250908060018154018082558091505060019003906000526020600020906002020160009091909190915060008201518160000160006101000a81548173ffffffffffffffffffffffffffffffffffffffff021916908373ffffffffffffffffffffffffffffffffffffffff160217905550602082015181600101555050565b7f000000000000000000000000000000000000000000000000000000000000000081565b600073ffffffffffffffffffffffffffffffffffffffff82169050919050565b6000610a9f82610a74565b9050919050565b610aaf81610a94565b82525050565b6000602082019050610aca6000830184610aa6565b92915050565b6000819050919050565b610ae381610ad0565b82525050565b6000602082019050610afe6000830184610ada565b92915050565b600080fd5b610b1281610ad0565b8114610b1d57600080fd5b50565b600081359050610b2f81610b09565b92915050565b600060208284031215610b4b57610b4a610b04565b5b6000610b5984828501610b20565b91505092915050565b6000604082019050610b776000830185610aa6565b610b846020830184610ada565b9392505050565b60008115159050919050565b610ba081610b8b565b82525050565b6000602082019050610bbb6000830184610b97565b92915050565b600082825260208201905092915050565b7f4f6e6c792063726561746f720000000000000000000000000000000000000000600082015250565b6000610c08600c83610bc1565b9150610c1382610bd2565b602082019050919050565b60006020820190508181036000830152610c3781610bfb565b9050919050565b7f4e6f7420656e6465640000000000000000000000000000000000000000000000600082015250565b6000610c74600983610bc1565b9150610c7f82610c3e565b602082019050919050565b60006020820190508181036000830152610ca381610c67565b9050919050565b7f416c72656164792066696e616c697a6564000000000000000000000000000000600082015250565b6000610ce0601183610bc1565b9150610ceb82610caa565b602082019050919050565b60006020820190508181036000830152610d0f81610cd3565b9050919050565b7f4e487b7100000000000000000000000000000000000000000000000000000000600052601160045260246000fd5b6000610d5082610ad0565b9150610d5b83610ad0565b9250828203905081811115610d7357610d72610d16565b5b92915050565b6000610d8482610ad0565b9150610d8f83610ad0565b9250828201905080821115610da757610da6610d16565b5b92915050565b7f4e487b7100000000000000000000000000000000000000000000000000000000600052603260045260246000fd5b6000610de782610ad0565b91507fffffffffffffffffffffffffffffffffffffffffffffffffffffffffffffffff8203610e1957610e18610d16565b5b600182019050919050565b7f41756374696f6e20656e64656400000000000000000000000000000000000000600082015250565b6000610e5a600d83610bc1565b9150610e6582610e24565b602082019050919050565b60006020820190508181036000830152610e8981610e4d565b9050919050565b7f42696420746f6f20686967680000000000000000000000000000000000000000600082015250565b6000610ec6600c83610bc1565b9150610ed182610e90565b602082019050919050565b60006020820190508181036000830152610ef581610eb9565b905091905056fea264697066735822122090e95bc124a366b89ac34e75867e656e4ed3d33d2644622c1a879d4236d7616d64736f6c63430008140033",
  "linkReferences": {},
  "deployedLinkReferences": {}
}